# 157

## 解答

### 小問 1

```
uchiyama@X280:~/work/knock$ sudo tcpdump 'icmp[icmptype] == icmp-echo' -x
tcpdump: verbose output suppressed, use -v or -vv for full protocol decode
listening on eth0, link-type EN10MB (Ethernet), capture size 262144 bytes
08:30:25.409317 IP 192.168.146.192 > 172.67.22.15: ICMP echo request, id 3199, seq 1, length 64
        0x0000:  4500 0054 9882 4000 4001 8c6b c0a8 92c0
        0x0010:  ac43 160f 0800 177f 0c7f 0001 918b a763
        0x0020:  0000 0000 d63e 0600 0000 0000 1011 1213
        0x0030:  1415 1617 1819 1a1b 1c1d 1e1f 2021 2223
        0x0040:  2425 2627 2829 2a2b 2c2d 2e2f 3031 3233
        0x0050:  3435 3637
^C
1 packet captured
1 packet received by filter
0 packets dropped by kernel
```

### 小問 2

```
uchiyama@X280:~/work/knock$ sudo tcpdump 'icmp[icmptype] == icmp-echo' -x -c 1 2>/dev/null | sed '1d;s/.*://' | xxd -r -p | xxd -s6
00000006: 4000 4001 8bcb c0a8 92c0 6816 3bfb 0800  @.@.......h.;...
00000016: 7c9a 0d3d 0001 838e a763 0000 0000 7a62  |..=.....c....zb
00000026: 0a00 0000 0000 1011 1213 1415 1617 1819  ................
00000036: 1a1b 1c1d 1e1f 2021 2223 2425 2627 2829  ...... !"#$%&'()
00000046: 2a2b 2c2d 2e2f 3031 3233 3435 3637       *+,-./01234567
```

- これは誤り

## 考察

### 教科書の解答

- tcpdump icmp
